{
  "contractName": "Upload",
  "abi": [
    {
      "inputs": [
        {
          "internalType": "address",
          "name": "",
          "type": "address"
        },
        {
          "internalType": "uint256",
          "name": "",
          "type": "uint256"
        }
      ],
      "name": "accessList",
      "outputs": [
        {
          "internalType": "address",
          "name": "user",
          "type": "address"
        },
        {
          "internalType": "bool",
          "name": "access",
          "type": "bool"
        }
      ],
      "stateMutability": "view",
      "type": "function",
      "constant": true
    },
    {
      "inputs": [
        {
          "internalType": "address",
          "name": "_user",
          "type": "address"
        },
        {
          "internalType": "string",
          "name": "url",
          "type": "string"
        }
      ],
      "name": "add",
      "outputs": [],
      "stateMutability": "nonpayable",
      "type": "function"
    },
    {
      "inputs": [
        {
          "internalType": "address",
          "name": "user",
          "type": "address"
        }
      ],
      "name": "allow",
      "outputs": [],
      "stateMutability": "nonpayable",
      "type": "function"
    },
    {
      "inputs": [
        {
          "internalType": "address",
          "name": "user",
          "type": "address"
        }
      ],
      "name": "disallow",
      "outputs": [],
      "stateMutability": "nonpayable",
      "type": "function"
    },
    {
      "inputs": [
        {
          "internalType": "address",
          "name": "_user",
          "type": "address"
        }
      ],
      "name": "display",
      "outputs": [
        {
          "internalType": "string[]",
          "name": "",
          "type": "string[]"
        }
      ],
      "stateMutability": "view",
      "type": "function",
      "constant": true
    },
    {
      "inputs": [],
      "name": "shareAccess",
      "outputs": [
        {
          "components": [
            {
              "internalType": "address",
              "name": "user",
              "type": "address"
            },
            {
              "internalType": "bool",
              "name": "access",
              "type": "bool"
            }
          ],
          "internalType": "struct Upload.Access[]",
          "name": "",
          "type": "tuple[]"
        }
      ],
      "stateMutability": "view",
      "type": "function",
      "constant": true
    }
  ],
  "bytecode": "0x608060405234801561000f575f80fd5b506114218061001d5f395ff3fe608060405234801561000f575f80fd5b5060043610610060575f3560e01c806336d6da551461006457806370c2b41914610080578063a9ed9cb8146100b1578063bc8bef81146100cd578063eb39113f146100eb578063ff9913e81461011b575b5f80fd5b61007e60048036038101906100799190610c13565b610137565b005b61009a60048036038101906100959190610ca3565b6101b1565b6040516100a8929190610d0a565b60405180910390f35b6100cb60048036038101906100c69190610d31565b610212565b005b6100d561041f565b6040516100e29190610e4f565b60405180910390f35b61010560048036038101906101009190610d31565b610520565b6040516101129190610fb4565b60405180910390f35b61013560048036038101906101309190610d31565b61072a565b005b5f808473ffffffffffffffffffffffffffffffffffffffff1673ffffffffffffffffffffffffffffffffffffffff1681526020019081526020015f20828290918060018154018082558091505060019003905f5260205f20015f9091929091929091929091925091826101ab929190611205565b50505050565b6002602052815f5260405f2081815481106101ca575f80fd5b905f5260205f20015f9150915050805f015f9054906101000a900473ffffffffffffffffffffffffffffffffffffffff1690805f0160149054906101000a900460ff16905082565b5f60015f3373ffffffffffffffffffffffffffffffffffffffff1673ffffffffffffffffffffffffffffffffffffffff1681526020019081526020015f205f8373ffffffffffffffffffffffffffffffffffffffff1673ffffffffffffffffffffffffffffffffffffffff1681526020019081526020015f205f6101000a81548160ff0219169083151502179055505f5b60025f3373ffffffffffffffffffffffffffffffffffffffff1673ffffffffffffffffffffffffffffffffffffffff1681526020019081526020015f208054905081101561041b578173ffffffffffffffffffffffffffffffffffffffff1660025f3373ffffffffffffffffffffffffffffffffffffffff1673ffffffffffffffffffffffffffffffffffffffff1681526020019081526020015f208281548110610351576103506112d2565b5b905f5260205f20015f015f9054906101000a900473ffffffffffffffffffffffffffffffffffffffff1673ffffffffffffffffffffffffffffffffffffffff1603610408575f60025f3373ffffffffffffffffffffffffffffffffffffffff1673ffffffffffffffffffffffffffffffffffffffff1681526020019081526020015f2082815481106103e6576103e56112d2565b5b905f5260205f20015f0160146101000a81548160ff0219169083151502179055505b80806104139061132c565b9150506102a3565b5050565b606060025f3373ffffffffffffffffffffffffffffffffffffffff1673ffffffffffffffffffffffffffffffffffffffff1681526020019081526020015f20805480602002602001604051908101604052809291908181526020015f905b82821015610517578382905f5260205f20016040518060400160405290815f82015f9054906101000a900473ffffffffffffffffffffffffffffffffffffffff1673ffffffffffffffffffffffffffffffffffffffff1673ffffffffffffffffffffffffffffffffffffffff1681526020015f820160149054906101000a900460ff1615151515815250508152602001906001019061047d565b50505050905090565b60603373ffffffffffffffffffffffffffffffffffffffff168273ffffffffffffffffffffffffffffffffffffffff1614806105dd575060015f8373ffffffffffffffffffffffffffffffffffffffff1673ffffffffffffffffffffffffffffffffffffffff1681526020019081526020015f205f3373ffffffffffffffffffffffffffffffffffffffff1673ffffffffffffffffffffffffffffffffffffffff1681526020019081526020015f205f9054906101000a900460ff165b61061c576040517f08c379a0000000000000000000000000000000000000000000000000000000008152600401610613906113cd565b60405180910390fd5b5f808373ffffffffffffffffffffffffffffffffffffffff1673ffffffffffffffffffffffffffffffffffffffff1681526020019081526020015f20805480602002602001604051908101604052809291908181526020015f905b8282101561071f578382905f5260205f2001805461069490611038565b80601f01602080910402602001604051908101604052809291908181526020018280546106c090611038565b801561070b5780601f106106e25761010080835404028352916020019161070b565b820191905f5260205f20905b8154815290600101906020018083116106ee57829003601f168201915b505050505081526020019060010190610677565b505050509050919050565b6001805f3373ffffffffffffffffffffffffffffffffffffffff1673ffffffffffffffffffffffffffffffffffffffff1681526020019081526020015f205f8373ffffffffffffffffffffffffffffffffffffffff1673ffffffffffffffffffffffffffffffffffffffff1681526020019081526020015f205f6101000a81548160ff0219169083151502179055506001151560035f3373ffffffffffffffffffffffffffffffffffffffff1673ffffffffffffffffffffffffffffffffffffffff1681526020019081526020015f205f8373ffffffffffffffffffffffffffffffffffffffff1673ffffffffffffffffffffffffffffffffffffffff1681526020019081526020015f205f9054906101000a900460ff161515036109ca575f5b60025f3373ffffffffffffffffffffffffffffffffffffffff1673ffffffffffffffffffffffffffffffffffffffff1681526020019081526020015f20805490508110156109c4578173ffffffffffffffffffffffffffffffffffffffff1660025f3373ffffffffffffffffffffffffffffffffffffffff1673ffffffffffffffffffffffffffffffffffffffff1681526020019081526020015f2082815481106108f9576108f86112d2565b5b905f5260205f20015f015f9054906101000a900473ffffffffffffffffffffffffffffffffffffffff1673ffffffffffffffffffffffffffffffffffffffff16036109b157600160025f3373ffffffffffffffffffffffffffffffffffffffff1673ffffffffffffffffffffffffffffffffffffffff1681526020019081526020015f20828154811061098f5761098e6112d2565b5b905f5260205f20015f0160146101000a81548160ff0219169083151502179055505b80806109bc9061132c565b91505061084b565b50610b4d565b60025f3373ffffffffffffffffffffffffffffffffffffffff1673ffffffffffffffffffffffffffffffffffffffff1681526020019081526020015f2060405180604001604052808373ffffffffffffffffffffffffffffffffffffffff16815260200160011515815250908060018154018082558091505060019003905f5260205f20015f909190919091505f820151815f015f6101000a81548173ffffffffffffffffffffffffffffffffffffffff021916908373ffffffffffffffffffffffffffffffffffffffff1602179055506020820151815f0160146101000a81548160ff0219169083151502179055505050600160035f3373ffffffffffffffffffffffffffffffffffffffff1673ffffffffffffffffffffffffffffffffffffffff1681526020019081526020015f205f8373ffffffffffffffffffffffffffffffffffffffff1673ffffffffffffffffffffffffffffffffffffffff1681526020019081526020015f205f6101000a81548160ff0219169083151502179055505b50565b5f80fd5b5f80fd5b5f73ffffffffffffffffffffffffffffffffffffffff82169050919050565b5f610b8182610b58565b9050919050565b610b9181610b77565b8114610b9b575f80fd5b50565b5f81359050610bac81610b88565b92915050565b5f80fd5b5f80fd5b5f80fd5b5f8083601f840112610bd357610bd2610bb2565b5b8235905067ffffffffffffffff811115610bf057610bef610bb6565b5b602083019150836001820283011115610c0c57610c0b610bba565b5b9250929050565b5f805f60408486031215610c2a57610c29610b50565b5b5f610c3786828701610b9e565b935050602084013567ffffffffffffffff811115610c5857610c57610b54565b5b610c6486828701610bbe565b92509250509250925092565b5f819050919050565b610c8281610c70565b8114610c8c575f80fd5b50565b5f81359050610c9d81610c79565b92915050565b5f8060408385031215610cb957610cb8610b50565b5b5f610cc685828601610b9e565b9250506020610cd785828601610c8f565b9150509250929050565b610cea81610b77565b82525050565b5f8115159050919050565b610d0481610cf0565b82525050565b5f604082019050610d1d5f830185610ce1565b610d2a6020830184610cfb565b9392505050565b5f60208284031215610d4657610d45610b50565b5b5f610d5384828501610b9e565b91505092915050565b5f81519050919050565b5f82825260208201905092915050565b5f819050602082019050919050565b610d8e81610b77565b82525050565b610d9d81610cf0565b82525050565b604082015f820151610db75f850182610d85565b506020820151610dca6020850182610d94565b50505050565b5f610ddb8383610da3565b60408301905092915050565b5f602082019050919050565b5f610dfd82610d5c565b610e078185610d66565b9350610e1283610d76565b805f5b83811015610e42578151610e298882610dd0565b9750610e3483610de7565b925050600181019050610e15565b5085935050505092915050565b5f6020820190508181035f830152610e678184610df3565b905092915050565b5f81519050919050565b5f82825260208201905092915050565b5f819050602082019050919050565b5f81519050919050565b5f82825260208201905092915050565b5f5b83811015610ecf578082015181840152602081019050610eb4565b5f8484015250505050565b5f601f19601f8301169050919050565b5f610ef482610e98565b610efe8185610ea2565b9350610f0e818560208601610eb2565b610f1781610eda565b840191505092915050565b5f610f2d8383610eea565b905092915050565b5f602082019050919050565b5f610f4b82610e6f565b610f558185610e79565b935083602082028501610f6785610e89565b805f5b85811015610fa25784840389528151610f838582610f22565b9450610f8e83610f35565b925060208a01995050600181019050610f6a565b50829750879550505050505092915050565b5f6020820190508181035f830152610fcc8184610f41565b905092915050565b5f82905092915050565b7f4e487b71000000000000000000000000000000000000000000000000000000005f52604160045260245ffd5b7f4e487b71000000000000000000000000000000000000000000000000000000005f52602260045260245ffd5b5f600282049050600182168061104f57607f821691505b6020821081036110625761106161100b565b5b50919050565b5f819050815f5260205f209050919050565b5f6020601f8301049050919050565b5f82821b905092915050565b5f600883026110c47fffffffffffffffffffffffffffffffffffffffffffffffffffffffffffffffff82611089565b6110ce8683611089565b95508019841693508086168417925050509392505050565b5f819050919050565b5f6111096111046110ff84610c70565b6110e6565b610c70565b9050919050565b5f819050919050565b611122836110ef565b61113661112e82611110565b848454611095565b825550505050565b5f90565b61114a61113e565b611155818484611119565b505050565b5b818110156111785761116d5f82611142565b60018101905061115b565b5050565b601f8211156111bd5761118e81611068565b6111978461107a565b810160208510156111a6578190505b6111ba6111b28561107a565b83018261115a565b50505b505050565b5f82821c905092915050565b5f6111dd5f19846008026111c2565b1980831691505092915050565b5f6111f583836111ce565b9150826002028217905092915050565b61120f8383610fd4565b67ffffffffffffffff81111561122857611227610fde565b5b6112328254611038565b61123d82828561117c565b5f601f83116001811461126a575f8415611258578287013590505b61126285826111ea565b8655506112c9565b601f19841661127886611068565b5f5b8281101561129f5784890135825560018201915060208501945060208101905061127a565b868310156112bc57848901356112b8601f8916826111ce565b8355505b6001600288020188555050505b50505050505050565b7f4e487b71000000000000000000000000000000000000000000000000000000005f52603260045260245ffd5b7f4e487b71000000000000000000000000000000000000000000000000000000005f52601160045260245ffd5b5f61133682610c70565b91507fffffffffffffffffffffffffffffffffffffffffffffffffffffffffffffffff8203611368576113676112ff565b5b600182019050919050565b5f82825260208201905092915050565b7f596f7520646f6e277420686176652061636365737300000000000000000000005f82015250565b5f6113b7601583611373565b91506113c282611383565b602082019050919050565b5f6020820190508181035f8301526113e4816113ab565b905091905056fea26469706673582212209ab8f0c219448e85ae79a0dbffa01ec502c83e8a1d6ef61bd202f45386e5e8a764736f6c63430008150033",
  "immutableReferences": {},
  "source": "// SPDX-License-Identifier: GPL-3.0\r\npragma solidity >=0.7.0 <0.9.0;\r\n\r\ncontract Upload{\r\n    struct Access{\r\n        address user;\r\n        bool access;\r\n    }\r\n    mapping(address=>string[]) value;//toStoreURL\r\n    mapping(address=>mapping(address=>bool)) ownership;\r\n    mapping(address=>Access[])public accessList; //toGIveOwnership\r\n    mapping(address=>mapping(address=>bool)) previousData;\r\n    function add(address _user,string calldata url) external{\r\n        value[_user].push(url);\r\n    }\r\n    function allow(address user) external{\r\n        ownership[msg.sender][user]=true;\r\n        if(previousData[msg.sender][user]==true){\r\n            for(uint i=0;i<accessList[msg.sender].length;i++){\r\n                if(accessList[msg.sender][i].user==user){\r\n                    accessList[msg.sender][i].access=true;\r\n                }\r\n            }\r\n        }else{\r\n        accessList[msg.sender].push(Access(user,true));\r\n        previousData[msg.sender][user]=true;\r\n        }\r\n    }\r\n    function disallow(address user) external{\r\n        ownership[msg.sender][user]=false;\r\n        for(uint i=0;i<accessList[msg.sender].length;i++){\r\n            if(accessList[msg.sender][i].user==user){\r\n        accessList[msg.sender][i].access=false;\r\n    }\r\n    }\r\n    }\r\n    function display(address _user) external view returns(string[] memory){\r\n      require(_user==msg.sender || ownership[_user][msg.sender],\"You don't have access\");\r\n      return value[_user];\r\n  }\r\n    function shareAccess() public view returns(Access[] memory){\r\n        return accessList[msg.sender];\r\n    }\r\n}",
  "sourcePath": "C:\\Users\\VYSHNAV\\major\\contracts\\Upload.sol",
  "compiler": {
    "name": "solc",
    "version": "0.8.21+commit.d9974bed.Emscripten.clang"
  },
  "schemaVersion": "3.4.16",
  "updatedAt": "2024-04-22T14:46:45.608Z",
  "networkType": "ethereum",
  "devdoc": {
    "kind": "dev",
    "methods": {},
    "version": 1
  },
  "userdoc": {
    "kind": "user",
    "methods": {},
    "version": 1
  }
}